{
  "contractName": "Message",
  "abi": [
    {
      "constant": true,
      "inputs": [],
      "name": "enabled",
      "outputs": [
        {
          "name": "",
          "type": "bool"
        }
      ],
      "payable": false,
      "stateMutability": "view",
      "type": "function"
    },
    {
      "inputs": [],
      "payable": false,
      "stateMutability": "nonpayable",
      "type": "constructor"
    },
    {
      "anonymous": false,
      "inputs": [
        {
          "indexed": false,
          "name": "from",
          "type": "address"
        },
        {
          "indexed": false,
          "name": "to",
          "type": "address"
        },
        {
          "indexed": false,
          "name": "sentID",
          "type": "uint256"
        },
        {
          "indexed": false,
          "name": "recvID",
          "type": "uint256"
        },
        {
          "indexed": false,
          "name": "message",
          "type": "string"
        }
      ],
      "name": "NewMessage",
      "type": "event"
    },
    {
      "constant": false,
      "inputs": [
        {
          "name": "to",
          "type": "address"
        },
        {
          "name": "message",
          "type": "string"
        }
      ],
      "name": "sendMessage",
      "outputs": [],
      "payable": true,
      "stateMutability": "payable",
      "type": "function"
    },
    {
      "constant": true,
      "inputs": [
        {
          "name": "addr",
          "type": "address"
        }
      ],
      "name": "sentCount",
      "outputs": [
        {
          "name": "",
          "type": "uint256"
        }
      ],
      "payable": false,
      "stateMutability": "view",
      "type": "function"
    },
    {
      "constant": true,
      "inputs": [
        {
          "name": "addr",
          "type": "address"
        }
      ],
      "name": "receivedCount",
      "outputs": [
        {
          "name": "",
          "type": "uint256"
        }
      ],
      "payable": false,
      "stateMutability": "view",
      "type": "function"
    },
    {
      "constant": true,
      "inputs": [],
      "name": "count",
      "outputs": [
        {
          "name": "",
          "type": "uint256"
        }
      ],
      "payable": false,
      "stateMutability": "view",
      "type": "function"
    },
    {
      "constant": false,
      "inputs": [],
      "name": "enableContract",
      "outputs": [],
      "payable": false,
      "stateMutability": "nonpayable",
      "type": "function"
    },
    {
      "constant": false,
      "inputs": [],
      "name": "disableContract",
      "outputs": [],
      "payable": false,
      "stateMutability": "nonpayable",
      "type": "function"
    }
  ],
  "bytecode": "0x60806040526001600060146101000a81548160ff021916908315150217905550600060015534801561003057600080fd5b50336000806101000a81548173ffffffffffffffffffffffffffffffffffffffff021916908373ffffffffffffffffffffffffffffffffffffffff160217905550610661806100806000396000f300608060405260043610610083576000357c0100000000000000000000000000000000000000000000000000000000900463ffffffff16806306661abd14610088578063238dafe0146100b3578063367edd32146100e257806360792829146100f9578063894ba83314610150578063d6d8a23a14610167578063de6f24bb146101be575b600080fd5b34801561009457600080fd5b5061009d61023a565b6040518082815260200191505060405180910390f35b3480156100bf57600080fd5b506100c8610244565b604051808215151515815260200191505060405180910390f35b3480156100ee57600080fd5b506100f7610257565b005b34801561010557600080fd5b5061013a600480360381019080803573ffffffffffffffffffffffffffffffffffffffff1690602001909291905050506102cf565b6040518082815260200191505060405180910390f35b34801561015c57600080fd5b50610165610318565b005b34801561017357600080fd5b506101a8600480360381019080803573ffffffffffffffffffffffffffffffffffffffff16906020019092919050505061038f565b6040518082815260200191505060405180910390f35b610238600480360381019080803573ffffffffffffffffffffffffffffffffffffffff169060200190929190803590602001908201803590602001908080601f01602080910402602001604051908101604052809392919081815260200183838082843782019150505050505091929192905050506103d8565b005b6000600154905090565b600060149054906101000a900460ff1681565b6000809054906101000a900473ffffffffffffffffffffffffffffffffffffffff1673ffffffffffffffffffffffffffffffffffffffff163373ffffffffffffffffffffffffffffffffffffffff161415156102b257600080fd5b6001600060146101000a81548160ff021916908315150217905550565b6000600360008373ffffffffffffffffffffffffffffffffffffffff1673ffffffffffffffffffffffffffffffffffffffff168152602001908152602001600020549050919050565b6000809054906101000a900473ffffffffffffffffffffffffffffffffffffffff1673ffffffffffffffffffffffffffffffffffffffff163373ffffffffffffffffffffffffffffffffffffffff1614151561037357600080fd5b60008060146101000a81548160ff021916908315150217905550565b6000600260008373ffffffffffffffffffffffffffffffffffffffff1673ffffffffffffffffffffffffffffffffffffffff168152602001908152602001600020549050919050565b600060149054906101000a900460ff1615156103f357600080fd5b600180600082825401925050819055506001600260003373ffffffffffffffffffffffffffffffffffffffff1673ffffffffffffffffffffffffffffffffffffffff168152602001908152602001600020600082825401925050819055506001600360008473ffffffffffffffffffffffffffffffffffffffff1673ffffffffffffffffffffffffffffffffffffffff168152602001908152602001600020600082825401925050819055507fb11b470cd1e7e24bdb3a4b2a0e4b1e5de9221663e94920c122f585cb1e5f90273383600260003373ffffffffffffffffffffffffffffffffffffffff1673ffffffffffffffffffffffffffffffffffffffff16815260200190815260200160002054600360008773ffffffffffffffffffffffffffffffffffffffff1673ffffffffffffffffffffffffffffffffffffffff1681526020019081526020016000205485604051808673ffffffffffffffffffffffffffffffffffffffff1673ffffffffffffffffffffffffffffffffffffffff1681526020018573ffffffffffffffffffffffffffffffffffffffff1673ffffffffffffffffffffffffffffffffffffffff16815260200184815260200183815260200180602001828103825283818151815260200191508051906020019080838360005b838110156105f35780820151818401526020810190506105d8565b50505050905090810190601f1680156106205780820380516001836020036101000a031916815260200191505b50965050505050505060405180910390a150505600a165627a7a72305820829fc758ef4bc4df3da63b94824a6902ac598474aa520c1bb8ad2607b7e5a56e0029",
  "source": "\npragma solidity ^0.4.24;\n\nimport \"./lib/safeMath.sol\";\nimport \"./lib/set.sol\";\n\ncontract Message {\n    using Set for Set.Data;\n    using SafeMath for uint256;\n\n    address owner; // owner has permissions to modify parameters\n    bool public enabled = true; // if upgrade contract, then the old contract should be disabled\n\n    uint256 _count = 0; // users _count\n\n    mapping (address => uint256) sent; // sent message count per address\n    mapping (address => uint256) received; // received message count per address\n\n    event NewMessage(address from, address to, uint256 sentID, uint256 recvID, string message);\n\n    modifier onlyOwner() {require(msg.sender == owner);_;}\n    modifier onlyEnabled() {require(enabled);_;}\n\n    constructor () public {\n        owner = msg.sender;\n    }\n\n    function sendMessage(address to, string message) public payable onlyEnabled {\n        _count += 1;\n        sent[msg.sender] += 1;\n        received[to] += 1;\n        emit NewMessage(msg.sender, to, sent[msg.sender], received[to], message);\n    }\n\n    function sentCount(address addr) public view returns (uint256) {\n        return sent[addr];\n    }\n\n    function receivedCount(address addr) public view returns (uint256) {\n        return received[addr];\n    }\n\n    function count() public view returns (uint256) {\n        return _count;\n    }\n\n    // owner can enable and disable rnode contract\n    function enableContract() public onlyOwner {\n        enabled = true;\n    }\n\n    function disableContract() public onlyOwner {\n        enabled = false;\n    }\n}\n",
  "sourcePath": "/Users/liaojinlong/Workspace/CPChain/cpchain-dapps-message/contracts/Message.sol",
  "compiler": {
    "name": "solc",
    "version": "0.4.25+commit.59dbf8f1.Linux.g++"
  },
  "schemaVersion": "3.3.4",
  "updatedAt": "2021-12-15T11:44:39.505Z",
  "devdoc": {
    "methods": {}
  },
  "userdoc": {
    "methods": {}
  }
}